:020000040800F2
:10000000080400209D0100088B0C0008870C0008E4
:10001000890C0008E5010008E90D00080000000057
:100020000000000000000000000000002D0D00088E
:10003000E701000800000000AD0C00082F0D0008CB
:10004000B7010008B7010008B7010008B7010008B0
:10005000B7010008B7010008B7010008B7010008A0
:10006000B7010008B7010008B7010008B701000890
:10007000B7010008B7010008B7010008B701000880
:10008000B7010008B7010008B7010008B701000870
:10009000B7010008B7010008B7010008B701000860
:1000A000B7010008B7010008B7010008B701000850
:1000B000B7010008B7010008B7010008B701000840
:1000C000B7010008B7010008B7010008B701000830
:1000D000B7010008B7010008B7010008B701000820
:1000E000B7010008B7010008B7010008B701000810
:1000F000B7010008B7010008B7010008B701000800
:10010000B7010008B7010008B7010008B7010008EF
:10011000B7010008B7010008B7010008B7010008DF
:10012000B7010008B7010008B7010008B7010008CF
:10013000B7010008B7010008B7010008B7010008BF
:10014000B7010008B7010008B7010008B7010008AF
:10015000B7010008B7010008B7010008B70100089F
:10016000B7010008B7010008B7010008B70100088F
:10017000B7010008B7010008B7010008000000003F
:10018000B7010008B7010008DFF80CD000F018F83C
:1001900000480047090E0008080400200648804770
:1001A00006480047FEE7FEE7FEE7FEE7FEE7FEE75C
:1001B000FEE7FEE7FEE7FEE7A50D0008890100085F
:1001C000064C074D06E0E06840F0010394E80700A4
:1001D00098471034AC42F6D3FFF7DAFFD40E00088C
:1001E000F40E0008FEE7704770B5044600F0F4F81E
:1001F0000546601C00D0641C00F0EEF8401BA042D5
:10020000FAD370BD2DE9F84FDFF898B100234FF015
:10021000010C4FF0030A4FF00F090BF1040EB9E087
:100220000CFA03F4224070D04D68022D01D0122D3B
:100230000ED1DD0800EB8508D8F820505E07F70ED8
:1002400009FA07F6B5430E69BE402E43C8F8206090
:1002500007685E0091F804800AFA06F508F00308C2
:10026000AF4308FA06F848EA0708C0F800804F686C
:10027000012F05D0022F03D0112F01D0122F13D13F
:10028000D0F80880CF6828EA0508B74047EA080791
:100290008760D0F804800F7928EA0408C7F30017B4
:1002A0009F4047EA08074760D1F804806FEA0807D3
:1002B000BF0706D1C76AA743C8F3C0049C403C43AC
:1002C000C462C468AC438D68B5402543C5604C68C2
:1002D000E4005ED5344C256E45F001052566246E9C
:1002E00023F0030504F001040094304C2E19B46887
:1002F0009D072F0F09FA07F5AC43B0F1904F05D0D9
:100300002B4DA84204D101251CE042E0002519E054
:10031000284DA84201D1022514E0274DA84201D161
:1003200003250FE0254DA84201D104250AE0244D04
:10033000A84201D1052505E0224DA84201D106259C
:1003400000E00725BD402543B560DBF800405D4671
:100350004E689443F60300D514432C60DEF8004049
:1003600075464E689443B60300D514432C600D4D7A
:1003700008352C684E689443F60200D514432C606F
:10038000084D0C352C684E689443B60200D51443D2
:100390002C605B1C0A6832FA03F57FF441AF00F071
:1003A00013B80000000401400010024000000140AA
:1003B0000004004800080048000C004800100048F5
:1003C000001400480018004818BCBDE8E08F0AB1CE
:1003D0008161704781627047014800687047000082
:1003E0000400002002480168491C016070470000B9
:1003F0000400002010B5032000F07CF8002000F07D
:1004000005F800F017F8002010BD000010B50446F4
:1004100007484FF47A710068B0FBF1F000F01BFC64
:1004200000222146501E00F045F8002010BD0000BB
:10043000000000201E4808B5016E41F00101016670
:10044000016E01F001010091816D41F080518165E3
:10045000806D00F080500090032000F04BF80022E7
:1004600011466FF00B0000F025F8002211466FF0E6
:100470000A0000F01FF8002211466FF0090000F09A
:1004800019F800221146501F00F014F800221146FE
:10049000101F00F00FF800221146901E00F00AF81D
:1004A0000022BDE808401146501E00F003B80000CD
:1004B00000100240F0B40E4B1B680C46C3F302233D
:1004C000C3F10705042D00D90425191D072901D200
:1004D000002300E0DB1E012606FA05F1491E21403B
:1004E00099409E40761E16403143F0BC00F0CEBBD2
:1004F0000CED00E0064900F0070208684FF6FF0324
:10050000184040EA0220034A104308607047000088
:100510000CED00E00000FA051549B0F5007F086811
:10052000C0F3412009D0022805D0086820F4C0603B
:1005300040F480600860002070470128FBD0086804
:1005400020F4C06040F4007008600A480A4A00685D
:10055000B0FBF2F03222504300E0401E10B14A6975
:100560005205FAD448694005E5D5032070470000DC
:10057000007000400000002040420F000248006868
:1005800000F4C06070470000007000402DE9F047A3
:10059000DFF8608105460E46D8F8000000F007003D
:1005A000B0420CD2D8F8001021F007013143C8F84E
:1005B0000010D8F8000000F00700B04275D128788C
:1005C0004D4CC00757D06868032818D0022819D0AE
:1005D0002168D0B14905002967DAA16821F003013B
:1005E0000143A160FFF7F8FE6968074641F28830D1
:1005F000032913D002291FD0814651B336E0216868
:100600008901E8E721688903E5E78907E3E700BF97
:10061000FFF7E2FEC11B494501D924E08146A068ED
:10062000C0F381000328F3D125E000BFFFF7D4FE1B
:10063000C11B494501D916E08146A068C0F381007D
:100640000228F3D117E000BFFFF7C6FEC11B4945E2
:1006500009D8A06810F00C0FF6D10CE0FFF7BCFE33
:10066000C11B494502D90320BDE8F087A068C0F34B
:1006700081000128F2D12878800705D5A068A968F3
:1006800020F0F0000843A060D8F80010404601F0C8
:100690000701B1420BD9016821F007013143016024
:1006A000006800F00700B04201D00120DCE72878A4
:1006B000400705D5A068E96820F4E0600843A06021
:1006C0002878000706D5A068296920F4605040EA20
:1006D000C100A06000F01CF8A168084AC1F3031132
:1006E000515CC840064908600020FFF78FFE0020DB
:1006F000BAE700000020024000100240940E0008FB
:100700000000002001480068704700000000002041
:1007100030B52D49002318468A682C4C12F00C0F76
:100720004FEA640514D08A68C2F38102032A04D117
:10073000CA6802F00302012A0AD08A68C2F3810261
:10074000012A19D08A68C2F38102022A16D016E063
:100750000A68120704D4D1F89420C2F3032202E0FD
:100760000A68C2F303121A4B53F822308A6812F057
:100770000C0F04D1184602E0204600E028468A68A3
:10078000C2F38102032A1DD1C868CA6800F00300C1
:10079000C2F30212521C022804D0032805D0B3FB76
:1007A000F2F004E0B4FBF2F001E0B5FBF2F0CA684D
:1007B000C968C2F306225043C1F34161491C490094
:1007C000B0FBF1F030BD0000001002400024F40046
:1007D000A40E00082DE9F84304460078FE4DC0063B
:1007E0005DD5A86810F00C0F0AD0A0690028286811
:1007F00071D040F001002860FFF7EEFD064654E09E
:100800002868800702D5A06900287DD0216A286861
:10081000000703D5286800F0F00004E0D5F8940044
:10082000F02202EA1010814216D9084600F040FA80
:10083000002869D1286840F0080028602868216AEB
:1008400020F0F000084328606868E16920F47F40E8
:1008500040EA0120686015E0286840F00800286040
:100860002868216A20F0F000084328606868E16980
:1008700020F47F4040EA01206860206A00F018FA06
:100880000028D6D1FFF744FFA968D44AC1F3031169
:10089000515CC840D24908600020FFF7B7FD29E04D
:1008A000FFF79AFD801B02287ED828688007F7D5BD
:1008B000286840F0080028602868216A20F0F000CD
:1008C000084328606868E16920F47F4040EA01201D
:1008D00068600FE0FFE720F001002860FFF77CFD73
:1008E000064604E0FFF778FD801B0228DCD8286864
:1008F0008007F7D42078C0074AD0A868C0F38100E9
:1009000002281FD0A86800E098E0C0F38100032807
:1009100003D1E868C043800714D06068B0F5803F19
:1009200017D0B0F5A02F286817D020F480302860A9
:10093000286820F4802028606068E0B1FFF74CFD53
:10094000064614E02868800322D56068002875D028
:100950001EE0286840F48030EDE740F480202860F5
:10096000F7E700BFFFF738FD801B64289CD8286894
:100970008003F7D50CE0FFF72FFD064605E000BF2A
:10098000FFF72AFD801B64288ED828688003F7D4DF
:100990002078800742D5A868C0F38100012816D0CE
:1009A000A868C0F3810000E0A9E0032804D1E8684A
:1009B00000F0030002280AD0E068002828681DD053
:1009C00040F480702860FFF707FD06460BE02868BA
:1009D00040050BD5E0680028B9D007E0FFF7FCFC24
:1009E000801B0228C2D828684005F7D56868217C9A
:1009F00020F0F85040EA016068600FE020F4807059
:100A00002860FFF7E9FC064605E000BFFFF7E4FCBD
:100A1000801B022873D828684005F7D42078000787
:100A200029D560690028D5F8940013D040F0010062
:100A3000C5F89400FFF7D0FC064606E0FBE000BFD7
:100A4000FFF7CAFC801B022859D8D5F8940080070C
:100A5000F6D510E020F00100C5F89400FFF7BCFCCB
:100A6000064604E0FFF7B8FC801B022847D8D5F8FB
:100A700094008007F6D42078400763D5A86D00263F
:100A8000C00008D4A86D40F08050A865A86D01266C
:100A900000F08050009053480168C90511D40168E6
:100AA000804641F480710160FFF796FC074604E040
:100AB000FFF792FCC01B022821D8D8F80000C0051F
:100AC000F6D5A068012815D00528D5F8900017D0D4
:100AD00020F00100C5F89000D5F8900020F0040047
:100AE000C5F89000A06841F28838C8B1FFF774FCDF
:100AF000074610E0D5F8900040F00100F0E777E0FD
:100B000040F00400C5F89000F4E700BFFFF764FC74
:100B1000C11B41456CD8D5F890008007F6D50CE094
:100B2000FFF75AFC074604E0FFF756FCC11B41459E
:100B300079D8D5F890008007F6D41EB1A86D20F0C2
:100B40008050A865A06AE0B3A968C1F381010329B8
:100B500072D00228286820F08070286011D02868A0
:100B6000000106D42868800003D4E86820F0030060
:100B7000E860E8681C490840E860FFF72DFC04467F
:100B800054E0FFF729FC064605E000BFFFF724FC10
:100B9000801B022847D828688001F7D4206BE16ABF
:100BA000000110380843616BA26B0902120941EA87
:100BB00042410843A18F0D4A490802EB41510843C5
:100BC00000E036E094F840104908120102EB416160
:100BD0000843E86028680CE000100240940E00080A
:100BE0000000002000700040FFFFEEFE0000E0FF6C
:100BF00019E040F080702860E86840F08070E8609C
:100C0000FFF7EAFB044604E0FFF7E6FB001B0228BF
:100C100009D828688001F7D50BE000BFFFF7DCFB9F
:100C2000001B022802D90320BDE8F8832868800150
:100C3000F4D40020F8E7FFE70120F5E74FF0E021CA
:100C40000428086903D020F004000861704740F0D0
:100C50000400FAE7704710B5401EB0F1807F01D361
:100C6000012010BD4FF0E02460610F21601700F0FB
:100C70000DF80020A06107202061002010BD10B5F4
:100C8000FFF7E8FF10BDFEE7FEE770470907090E12
:100C9000002806DA00F00F0000F1E02080F8141DB3
:100CA000704700F1E02080F80014704770470000A2
:100CB000F8B51C4D06460024A86DC00002D5FFF70C
:100CC0005DFC0DE0A86D40F08050A865A86D00F0B7
:100CD00080500090FFF752FCA96D21F08051A9656A
:100CE000B0F5007F04D0802E07D94FF003040AE04E
:100CF000802E08D9A02E01D804E001D1022402E000
:100D0000702E00D101240848016821F00701214319
:100D10000160006800F00700A04201D00120F8BD8A
:100D20000020F8BD0010024000200240704710B5BE
:100D3000FFF758FBBDE81040FFF7A1BF10B596B014
:100D400002200090C00103901020002404900A9417
:100D50006846FFF73FFD00B1FEE70F20119001202C
:100D6000CDE912041494002111A81594FFF70EFC8C
:100D700000B1FEE74FF40070FFF7CEFB00B1FEE7D5
:100D8000FFF7C0FC4FF47A71B0FBF1F0FFF763FF9F
:100D90000420FFF753FF00221146501EFFF78AFB85
:100DA00016B010BD0D48016841F4700101600C4897
:100DB000016841F001010160002181600268094B76
:100DC0001A4002608214C260026822F4802202602B
:100DD00081610249C00380390860704788ED00E0F6
:100DE00000100240FFFFF6EAFEE702E008C8121F0B
:100DF00008C1002AFAD170477047002001E001C104
:100E0000121F002AFBD170474FF0904486B0206833
:100E100040F0A8402060606820F460406060A068F6
:100E200040F0A840A060FFF7E5FAFFF787FF1848F9
:100E3000C16C41F00101C164C06C4FF4604500F029
:100E400001000590002229462046FFF7C0FA012044
:100E5000CDE9005000200290022003906946204610
:100E6000FFF7D0F94FF47A75A06940F46040A061B3
:100E70002846FFF7B9F9A06920F46040A061A06995
:100E800040F06040A0612846FFF7AEF9ECE70000B3
:100E900000100240000000000000000001020304F6
:100EA00006070809A0860100400D0300801A06000D
:100EB00000350C0040420F0080841E0000093D00F8
:100EC00000127A000024F40000366E010048E801A8
:100ED000006CDC02F40E0008000000200800000096
:100EE000EA0D0008FC0E00080800002000040000C5
:0C0EF000FA0D000800093D0000000000A1
:040000050800018965
:00000001FF
